:020000040000FA
:1000000029EF00F0F76A140FF66E000EF7220900D0
:10001000F55012006F6D6D6E6D6E696E696E692EB2
:100020002E2E2E2E2E2E2E2E2E2E0000EA6A070E9B
:10003000E96EEF500DE0020E016E006A002EFED751
:10004000012EFBD7970E006E002EFED7EF2EF3D7B2
:10005000000CF86AD09EEA6AE96A720ED36ED35039
:10006000B8960C0EAF6EA20EAC6E900EAB6EC15079
:10007000C00B0F09C16EC150C00B0F09C16EC290F9
:10008000C69A949A94889496010EC66E000EC76E16
:10009000D190800ED56ECD6A000ECA6E000ECB6E6A
:1000A000B150480BB16EB56A066A0650ABDF062A3E
:1000B000006E00509EA8FED7AD6E160E065CF5E1F0
:1000C00094908B80040E066EFA0E076EAFDF062E3C
:1000D000FBD794908B90040E066EFA0E076EA6DF87
:0800E000062EFBD7EDD703004B
:020000040030CA
:0E00000000C81F0E008695000FC00FE00F40D5
:00000001FF
;PIC18F2580
