:020000040000FA
:0400000070EF1CF091
:08000800056ED8CF06F0E0CF31
:1000100007F00001E9CF0DF0EACF08F0E1CF09F0D9
:10002000E2CF0AF0D9CF0BF0DACF0CF0F3CF14F017
:10003000F4CF15F0FACF16F000C00FF001C010F0A9
:1000400002C011F003C012F004C013F09DAA2CEFFF
:1000500000F09EBAABEF0AF0A0A432EF00F0A1B41A
:10006000B6EF0AF0A3AE38EF00F0A4BEBBEF11F07C
:10007000A3AA3EEF00F0A4BACDEF11F0A3A844EF7D
:1000800000F0A4B8B7EF11F0A3A64AEF00F0A4B6B1
:10009000B3EF11F0A3A450EF00F0A4B4AFEF11F050
:1000A000A3A256EF00F0A4B26BEF0FF0A3A05CEF99
:1000B00000F0A4B055EF0FF0A0AE62EF00F0A1BECB
:1000C000C6EF0AF00FC000F010C001F011C002F03E
:1000D00012C003F013C004F00E8E0DC0E9FF08C07B
:1000E000EAFF09C0E1FF0AC0E2FF0BC0D9FF0CC064
:1000F000DAFF14C0F3FF15C0F4FF16C0FAFF055075
:1001000007C0E0FF06C0D8FF1000F76A1A0FF66EAE
:10011000010EF7220900F55012002A2A2A2A2A2A5B
:100120002A2A2A2A2A2A2A2A0A0D0000F76A3C0FBC
:10013000F66E010EF7220900F55012002A20434105
:100140004E204D6573736167652A0A0D0000F76ADA
:100150005E0FF66E010EF7220900F55012002A20FC
:100160004944202020203D255820202A0A0D000047
:10017000F76A800FF66E010EF7220900F5501200A3
:100180002A204C656E6768743D255820202A0A0D88
:100190000000F76AA20FF66E010EF7220900F55073
:1001A00012002A205374617420203D255820202AF3
:1001B0000A0D0000F76AC40FF66E010EF72209005F
:1001C000F55012002A20446174615B25755D3D2560
:1001D000582A0A0D00000DAE03D0F2CF0EF0F29EA9
:1001E000F76AF80FF66E010EF7220900F5500DAE12
:1001F00002D00EBEF28E12002A2A2A2A2A2A2A2A7F
:100200002A2A2A2A2A2A2A2A2A2A2A2A2A2A0A0D8B
:100210000000F76A220FF66E020EF7220900F55071
:1002200012002A204F2D436F6E74726F6C206F7511
:10023000747075747320202A0A0D0000F76A4C0F41
:10024000F66E020EF7220900F55012002A20492D01
:100250005669657720496E707574732020202020C0
:10026000202A0A0D0000F76A760FF66E020EF722BA
:100270000900F55012002A20412D52656365697608
:10028000652043616E2020202020202A0A0D0000D6
:10029000F76AA00FF66E020EF7220900F550120061
:1002A0002A20522D52656164205265676973746516
:1002B00072202020202A0A0D0000F76ACA0FF66E6D
:1002C000020EF7220900F55012002A20572D57720E
:1002D0006974652052656769737465727320202A9A
:1002E0000A0D0000F76AF40FF66E020EF7220900FD
:1002F000F55012002A2A2A2A2A2A2A2A2A2A2A2AAF
:100300002A2A2A2A2A2A2A2A2A2A2A0A0D00F76AA7
:100310001E0FF66E030EF7220900F55012002A2078
:10032000302E2E2E372D546F67676C65206F7574D5
:10033000707574202A0A0D00F76A480FF66E030ED6
:10034000F7220900F55012002A20532D53616972DB
:1003500020202020202020202020202020202A0AA9
:100360000D00F76A720FF66E030EF7220900F550C2
:1003700012002052656C652030203120322033205D
:10038000342035203620370A0D00F76A9A0FF66EB2
:10039000030EF7220900F550120020202020202013
:1003A0002575202575202575202575202575202586
:1003B00075202575202575000DAE03D0F2CF0EF007
:1003C000F29EF76ADA0FF66E030EF7220900F55077
:1003D0000DAE02D00EBEF28E12002A2A2A2A2A2A36
:1003E0002A2A2A2A2A2A2A2A2A2A2A2A2A2A2A2A6D
:1003F0002A2A2A2A2A2A2A0A0D00F76A0A0FF66EE2
:10040000040EF7220900F55012002A205175616C84
:1004100071756572207465636C6120706172612012
:100420007361697220202A0A0D00F76A3A0FF66E8E
:10043000040EF7220900F550120020496E74203096
:1004400020312032203320342035203620370A0D49
:100450000000F76A620FF66E040EF7220900F550ED
:1004600012000D20202020202575202575202575BF
:1004700020257520257520257520257520257500DA
:10048000F76A900FF66E040EF7220900F55012007D
:100490000D20202020202025752025752025752061
:1004A00025752025752025752025752025750000CA
:1004B000F2CF0EF0F29EF76ACA0FF66E040EF72224
:1004C0000900F5500EBEF28E12005469706F3D2582
:1004D00058204461646F313D2558204461646F3277
:1004E0003D25580A0D00F2CF0EF0F29EF76A000F7C
:1004F000F66E050EF7220900F5500EBEF28E1200C0
:100500002A20412D436F6E666967757265204D6FB5
:1005100064756C6520416472657373202A0A0D004E
:10052000F2CF0EF0F29EF76A3A0FF66E050EF72242
:100530000900F5500EBEF28E12002A20432D436FA3
:100540006E6669677572652043616E2020202020E9
:100550002020202020202A0A0D00F2CF0EF0F29E4B
:10056000F76A740FF66E050EF7220900F5500EBEFD
:10057000F28E12002A20512D5175697420616E642B
:100580002052657365742020202020202020202008
:100590002A0A0D00F2CF0EF0F29EF76AAE0FF66E49
:1005A000050EF7220900F5500EBEF28E12002A2029
:1005B000572D577269746520454550524F4D202084
:1005C000202020202020202020202A0A0D00F2CFE9
:1005D0000EF0F29EF76AE80FF66E050EF72209009C
:1005E000F5500EBEF28E12002A20522D5265616423
:1005F00020454550524F4D202020202020202020F3
:10060000202020202A0A0D00F2CF0EF0F29EF76A79
:10061000220FF66E060EF7220900F5500EBEF28E7E
:1006200012002A2043757272656E742061647265CF
:1006300073733D257520202A0A0D0000F2CF0EF0BD
:10064000F29EF76A560FF66E060EF7220900F55075
:100650000EBEF28E12002A2A2A2A2A2A2A2A2A2A98
:100660002A2A2A2A2A2A2A2A2A2A2A2A0A0D0A0D64
:100670000000F2CF0EF0F29EF76A8C0FF66E060EB7
:10068000F7220900F5500EBEF28E12004E6577205B
:100690004164726573733A00F2CF0EF0F29EF76A0E
:1006A000B20FF66E060EF7220900F5500EBEF28E5E
:1006B00012000A0D204772617661723F20592F4E59
:1006C000200A0D00F2CF0EF0F29EF76ADE0FF66EF2
:1006D000060EF7220900F5500EBEF28E1200456E8E
:1006E00064657265636F2061206C65723F3A00003B
:1006F000F2CF0EF0F29EF76A0A0FF66E070EF7229F
:100700000900F5500EBEF28E1200456E64657265EA
:10071000636F20307825583D307825580A0D000049
:10072000F2CF0EF0F29EF76A3A0FF66E070EF7223E
:100730000900F5500EBEF28E1200456E64657265BA
:10074000636F20612065736372657665723F3A005E
:10075000F2CF0EF0F29EF76A6A0FF66E070EF722DE
:100760000900F5500EBEF28E12002A2A2A2A2A2AE1
:100770002A2A2A2A2A2A2A2A2A2A2A2A2A2A2A2AD9
:100780002A2A0A0D0000F2CF0EF0F29EF76AA00F9F
:10079000F66E070EF7220900F5500EBEF28E12001B
:1007A0002A2043757272656E74204252503D257541
:1007B000202020202020202A0A0D0000F2CF0EF059
:1007C000F29EF76AD60FF66E070EF7220900F55073
:1007D0000EBEF28E12002A2043757272656E74206E
:1007E000534A573D2575202020202020202A0A0D1D
:1007F0000000F2CF0EF0F29EF76A0C0FF66E080EB4
:10080000F7220900F5500EBEF28E12002A20437521
:100810007272656E74205048534547313D257520EE
:100820002020202A0A0D0000F2CF0EF0F29EF76A77
:10083000420FF66E080EF7220900F5500EBEF28E3A
:1008400012002A2043757272656E74205345473238
:10085000504854533D257520202A0A0D0000F2CF40
:100860000EF0F29EF76A780FF66E080EF722090076
:10087000F5500EBEF28E12002A2043757272656E1C
:1008800074205048534547323D2575202020202AAA
:100890000A0D0000F2CF0EF0F29EF76AAE0FF66E70
:1008A000080EF7220900F5500EBEF28E12002A2023
:1008B00043757272656E742050525345473D2575DD
:1008C00020202020202A0A0D0000F2CF0EF0F29EF8
:1008D000F76AE40FF66E080EF7220900F5500EBE17
:1008E000F28E12002A2A2A2A2A2A2A2A2A2A2A2A7E
:1008F0002A2A2A2A2A2A2A2A2A2A2A2A0A0D0A0DD2
:100900000000F2CF0EF0F29EF76A1C0FF66E090E91
:10091000F7220900F5500EBEF28E12004E657720C8
:100920004252503A0000F2CF0EF0F29EF76A400FAA
:10093000F66E090EF7220900F5500EBEF28E120077
:100940000A0D20477261766172206E6F766F2042C9
:10095000525020592F4E200A0D00F2CF0EF0F29E79
:10096000F76A740FF66E090EF7220900F5500EBEF5
:10097000F28E12004E6577205048534547313A00B9
:10098000F2CF0EF0F29EF76A9A0FF66E090EF7227A
:100990000900F5500EBEF28E12000A0D204772615A
:1009A000766172206E6F766F205048534547312034
:1009B000592F4E200A0D0000F2CF0EF0F29EF76A7A
:1009C000D20FF66E090EF7220900F5500EBEF28E18
:1009D00012004E6577205048534547323A00F2CF17
:1009E0000EF0F29EF76AF80FF66E090EF722090074
:1009F000F5500EBEF28E12000A0D2047726176612C
:100A000072206E6F766F2050485345473220592F21
:100A10004E200A0D0000F2CF0EF0F29EF76A300F62
:100A2000F66E0A0EF7220900F5500EBEF28E120085
:100A30004E65772050525345473A0000F2CF0EF0F2
:100A4000F29EF76A560FF66E0A0EF7220900F5506D
:100A50000EBEF28E12000A0D20477261766172207E
:100A60006E6F766F20505253454720592F4E200A03
:100A70000D00F2CF0EF0F29EF76A8C0FF66E0A0EA2
:100A8000F7220900F5500EBEF28E12004E65772057
:100A9000534A573A0000F2CF0EF0F29EF76AB00FB9
:100AA000F66E0A0EF7220900F5500EBEF28E120005
:100AB0000A0D20477261766172206E6F766F205347
:100AC0004A5720592F4E200A0D00F2CF0EF0F29E09
:100AD000F76AE40FF66E0A0EF7220900F5500EBE13
:100AE000F28E12004E6577205345473250485453DA
:100AF0003A00F2CF0EF0F29EF76A0C0FF66E0B0E74
:100B0000F7220900F5500EBEF28E12000A0D2047A2
:100B10007261766172206E6F766F20534547325056
:100B200048545320592F4E200A0D0000F76A3C0FFD
:100B3000F66E0B0EF7220900F55012004552524F87
:100B400052204C4F5720564F4C5441474520444566
:100B50005445435445440A0D0000F76A6A0FF66E87
:100B60000B0EF7220900F550120043616E204D650F
:100B7000737361676520526563656976656420708B
:100B8000726F63657373696E67206F6E2063616E49
:100B90007278305F696E740A0D00F76AAA0FF66EFC
:100BA0000B0EF7220900F550120043616E204D65CF
:100BB000737361676520526563656976656420704B
:100BC000726F63657373696E67206F6E2063616E09
:100BD0007278315F696E740A0D00F76AEA0FF66E7B
:100BE0000B0EF7220900F550120043616E204952A6
:100BF000582052656365697665642070726F63651D
:100C00007373696E67206F6E2063616E6972785FBF
:100C1000696E740A0D00F76A260FF66E0C0EF72245
:100C20000900F550120043616E204552524F522088
:100C300052656365697665642070726F636573736E
:100C4000696E67206F6E2063616E6572725F696E98
:100C5000740A0D00F2CF0EF0F29EF76A6E0FF66E78
:100C60000C0EF7220900F5500EBEF28E12004C61F8
:100C700073742052657365742043617573653A25FA
:100C8000580D0A00F2CF0EF0F29EF76A9E0FF66E34
:100C90000C0EF7220900F5500EBEF28E12000A0D5E
:100CA000204D6F64756C65205374617274696E6752
:100CB000205052455353204420544F204445425520
:100CC000472C204320544F20434F4E46494755520E
:100CD000452E2E2E0A0D0000F2CF0EF0F29EF76A7E
:100CE000F20FF66E0C0EF7220900F5500EBEF28ED2
:100CF00012000A0D205374617274696E6720696E68
:100D0000204465627567204D6F64652050524553DD
:100D100053204320464F5220434F4E534F4C450AD9
:100D20000D00F2CF0EF0F29EF76A3C0FF66E0D0E3C
:100D3000F7220900F5500EBEF28E12000A0D205364
:100D400074617274696E6720696E204E6F726D6196
:100D50006C204D6F6465200A0D00F2CF0EF0F29EFC
:100D6000F76A740FF66E0D0EF7220900F5500EBEED
:100D7000F28E12004C6F6164696E672043414E2011
:100D800064656661756C74730A0D0000F2CF0EF035
:100D9000F29EF76AA60FF66E0D0EF7220900F550C7
:100DA0000EBEF28E1200416472657373206E6F7412
:100DB00020536574204C6F6164696E6720646566BA
:100DC00061756C74204144522033300A0D00790063
:100DD00079007900790079007900790079000A0EAC
:100DE00004009EA8FDD7AD6E0D0E04009EA8FDD791
:100DF000AD6EF46BF451EBEC00F0F42B006E0400DC
:100E00009EA8FDD7AD6E180EF45DF4E1F46BF451BD
:100E100009EC01F0F42B006E04009EA8FDD7AD6E26
:100E2000180EF45DF4E1F46BF4511EEC01F0F42BB8
:100E3000006E04009EA8FDD7AD6E180EF45DF4E1BF
:100E4000F46BF45133EC01F0F42B006E04009EA817
:100E5000FDD7AD6E180EF45DF4E1F46BF45148EC7F
:100E600001F0F42B006E04009EA8FDD7AD6E180EA5
:100E7000F45DF4E1F46BF4515DEC01F0F42B006EE1
:100E800004009EA8FDD7AD6E180EF45DF4E1F46B7E
:100E9000F451EBEC00F0F42B006E04009EA8FDD79B
:100EA000AD6E180EF45DF4E1000C01010551016A0C
:100EB000045D03E204C100F00CD0006A080E066F66
:100EC000043700360551005CD8B0006E0136062F9D
:100ED000F7D70001000C015002C104F1640E0101BA
:100EE000056F0001E2DF00C002F10150300E08E1A1
:100EF000010103A30FD003B70DD003B9200E04D016
:100F000001010397039903810126015004009EA863
:100F1000FDD7AD6E02C104F10A0E056F0001C5DFF9
:100F200000C002F10150300E08E1010103B70CD0FE
:100F300003A10AD003B9200E0001012601500400CC
:100F40009EA8FDD7AD6E0101300E022702510400AC
:100F50009EA8FDD7AD6E0001000C0A0E04009EA8ED
:100F6000FDD7AD6E0D0E04009EA8FDD7AD6EF46BDF
:100F7000F45172EC01F0F42B006E04009EA8FDD732
:100F8000AD6E190EF45DF4E1F46BF45187EC01F0F1
:100F9000F42B006E04009EA8FDD7AD6E190EF45D13
:100FA000F4E1F46BF4519CEC01F0F42B006E0400BE
:100FB0009EA8FDD7AD6E190EF45DF4E1F46BF4510B
:100FC00072EC01F0F42B006E04009EA8FDD7AD6E0C
:100FD000190EF45DF4E1F46BF451B1EC01F0F42B73
:100FE000006E04009EA8FDD7AD6E170EF45DF4E10F
:100FF000000E1FB0010EF46F000E1FB2010EF56F50
:10100000000E1FB4010EF66F000E1FB6010EF76F33
:10101000000E1FB8010EF86F000E1FBA010EF96F17
:10102000000E1FBC010EFA6F000E1FBE010EFB6FFB
:10103000FC6BFC51C5EC01F0FC2B006E04009EA87B
:10104000FDD7AD6E060EFC5DF4E1F4C002F11B0E9F
:101050000101036F00013FDF200E04009EA8FDD7B1
:10106000AD6EF5C002F11B0E0101036F000133DF0D
:10107000200E04009EA8FDD7AD6EF6C002F11B0E37
:101080000101036F000127DF200E04009EA8FDD799
:10109000AD6EF7C002F11B0E0101036F00011BDFF3
:1010A000200E04009EA8FDD7AD6EF8C002F11B0E05
:1010B0000101036F00010FDF200E04009EA8FDD781
:1010C000AD6EF9C002F11B0E0101036F000103DFD9
:1010D000200E04009EA8FDD7AD6EFAC002F11B0ED3
:1010E0000101036F0001F7DE200E04009EA8FDD76A
:1010F000AD6EFBC002F11B0E0101036F0001EBDEC0
:10110000B7EF09F0300EF45DF80F26E2080FAEEFEE
:1011100008F0000E016E20D01FD0010E016E1CD011
:101120001BD0020E016E18D017D0030E016E14D022
:1011300013D0040E016E10D00FD0050E016E0CD02E
:101140000BD0060E016E08D007D0070E016E04D03A
:1011500003D0000E016E00D0DCEF09F0E824F76A3E
:10116000F736770FF66E110EF7220A00F550FA6E79
:101170000800F550F96E12111A1122112A113211BC
:101180003A1142114A11F4C01FF094948B94C95043
:10119000F4C0C9FFC7A0FED794948B84000C0A0E3C
:1011A00004009EA8FDD7AD6E0D0E04009EA8FDD7CD
:1011B000AD6EF46BF451DCEC01F0F42B006E040026
:1011C0009EA8FDD7AD6E1F0EF45DF4E1F46BF451F3
:1011D000FDEC01F0F42B006E04009EA8FDD7AD6E6F
:1011E0001F0EF45DF4E1F46BF451DCEC01F0F42B30
:1011F000006E04009EA8FDD7AD6E1F0EF45DF4E1F5
:10120000F46BF45115EC02F0F42B006E04009EA870
:10121000FDD7AD6E160EF45DF4E19EBA91D09280CA
:10122000000E80B0010EF46F9282000E80B2010EAB
:10123000F56F9284000E80B4010EF66F9286000E58
:1012400080B6010EF76F9288000E80B8010EF86F1D
:10125000928A000E80BA010EF96F9382000E81B25D
:10126000010EFA6F9380000E81B0010EFB6FFC6BD4
:10127000FC5129EC02F0FC2B006E04009EA8FDD767
:10128000AD6E060EFC5DF4E1F4C002F11B0E01012F
:10129000036F000120DE200E04009EA8FDD7AD6E76
:1012A000F5C002F11B0E0101036F000114DE200ED8
:1012B00004009EA8FDD7AD6EF6C002F11B0E010121
:1012C000036F000108DE200E04009EA8FDD7AD6E5E
:1012D000F7C002F11B0E0101036F0001FCDD200EBF
:1012E00004009EA8FDD7AD6EF8C002F11B0E0101EF
:1012F000036F0001F0DD200E04009EA8FDD7AD6E47
:10130000F9C002F11B0E0101036F0001E4DD200EA4
:1013100004009EA8FDD7AD6EFAC002F11B0E0101BC
:10132000036F0001D8DD200E04009EA8FDD7AD6E2E
:10133000FBC002F11B0E0101036F0001CCDD6DD774
:101340004EDD04009EAAFDD7AE50630E206E9EEFC8
:101350000AF0F151630804E142DD630E206EF9D01A
:10136000F1516F0807E12050630804E1F6D56F0ED4
:10137000206EEFD0F151300816E0F151310813E042
:10138000F151320810E0F15133080DE0F151340809
:101390000AE0F151350807E0F151360804E0F15157
:1013A0003708D8A4BAD020506F08D8A4B6D01FC030
:1013B000F2F0F1C0F4F0A6D601C0F3F01FC000F0C7
:1013C000F351016E04E0D8900032012EFCD700A04A
:1013D0000DD0010E006EF351016E04E0D89000367E
:1013E000012EFCD70050FF0AF2170BD0010E006E41
:1013F000F351016E04E0D8900036012EFCD7005066
:10140000F213F2C0F4F0BFDE000E1FB0010EF46F55
:10141000000E1FB2010EF56F000E1FB4010EF66F25
:10142000000E1FB6010EF76F000E1FB8010EF86F09
:10143000000E1FBA010EF96F000E1FBC010EFA6FED
:10144000000E1FBE010EFB6FFC6BFC5140EC02F066
:10145000FC2B006E04009EA8FDD7AD6E070EFC5D50
:10146000F4E1F4C002F11B0E0101036F000133DD52
:10147000200E04009EA8FDD7AD6EF5C002F11B0E34
:101480000101036F000127DD200E04009EA8FDD797
:10149000AD6EF6C002F11B0E0101036F00011BDDF2
:1014A000200E04009EA8FDD7AD6EF7C002F11B0E02
:1014B0000101036F00010FDD200E04009EA8FDD77F
:1014C000AD6EF8C002F11B0E0101036F000103DDD8
:1014D000200E04009EA8FDD7AD6EF9C002F11B0ED0
:1014E0000101036F0001F7DC200E04009EA8FDD768
:1014F000AD6EFAC002F11B0E0101036F0001EBDCBF
:10150000200E04009EA8FDD7AD6EFBC002F11B0E9D
:101510000101036F0001DFDC1CD0F151730807E10A
:1015200020506F0804E15BDC630E206E12D0F15195
:10153000690807E12050630804E131D6630E206E8C
:1015400008D0F151610805E12050630802E1610E05
:10155000206EB3EF0AF004009EAAFDD7AECF30F0A4
:1015600030C0F1F0F6D69E9A62EF00F0F16BF151C7
:1015700096EC05F0F12B006E04009EA8FDD7AD6E31
:101580001C0EF15DF4E1A19462EF00F0A19E62EF08
:1015900000F00101126B116B106B0F6B0DC114F198
:1015A0000CC113F10E53D8B48BD014C103F013C186
:1015B000E9FF14C1EAFFEFCF00F0016A026A036A93
:1015C00003C012F102C011F101C010F100C00FF10F
:1015D0001351D8B41407130713C1E9FF14C1EAFF6C
:1015E000EF50176B166B156F006A00500F131551F3
:1015F000101316511113175112131351D8B41407A5
:10160000130713C1E9FF14C1EAFFEF50030B196F71
:101610001A6B1B6B1C6B006A016A00500F130150A0
:101620001013195111131A51121313C1E9FF14C1E8
:10163000EAFFEF50E00B196F1A6B1B6B1C6B006A13
:101640001935016E1A35026E1B35036E01360236EE
:1016500003360136023603360136023603360136CA
:1016600002360336E00E011600500F13015010131E
:1016700002501113035012131351D8B41407130757
:1016800013C1E9FF14C1EAFFEF50166B156F006A32
:10169000016A1535026E1635036E023603360236C0
:1016A00003360236033602360336E00E02160050C9
:1016B0000F130150101302501113035012134FD087
:1016C000020E135F000E145B13C1E9FF14C1EAFFA1
:1016D000EF50E00B196F1A6B1B6B1C6B1C31126FF8
:1016E0001B31116F1A31106F19310F6F1233113313
:1016F00010330F331233113310330F3312331133CE
:1017000010330F331233113310330F33070E121708
:101710001351D8B41407130713C1E9FF14C1EAFF2A
:10172000EF50186B176B166B156F1535006E16356D
:10173000016E1735026E1835036E0036013602361B
:1017400003360036013602360336F80E0016005016
:101750000F130150101302501113035012130FC135
:1017600000F010C101F011C102F012C103F000013C
:10177000000C3150FF0801E1312A3152D8A433D195
:101780000101016BF70E006F60AE18D0F10E6F14FF
:101790006F6E0001F699A490F69174BEF681749E66
:1017A00060A40BD0000E60B0010E070B006ED89045
:1017B0000036F10EF6150010F66F20D00F0150AF75
:1017C00019D0F10E6F140A096F6E0001F689A49208
:1017D000F69174BCF681749C0F015051070B070BF6
:1017E000006ED8900036F10E0001F6150010F66F6D
:1017F00005D00F01000E016E50D0000165500F0B97
:10180000F56FF69B65BCF68BF69D62B6F68D000E05
:10181000F6BD010E0101056F0F0E0D6F640E0C6F0A
:1018200005C10EF10001B5DE03C0F4F002C0F3F013
:1018300001C0F2F000C0F1F00F0E0101046F660E5E
:10184000036F026B0001F5510101025D14E203C157
:10185000E9FF04C1EAFFEFCF07F101C1EAFF00C1D0
:10186000E9FF07C1EFFF002BD8B4012B032BD8B43D
:10187000042B022BE7D7F10E6F146F6E0001F69F59
:10188000A4BEF68FA49EF6A904D00F01509F03D0EA
:101890000001609E0F01010E016E31500E0DF350DC
:1018A0000101016B006F320E0025E96E000E01216F
:1018B000EA6E0001F4C0EFFF31500E0DF35001014C
:1018C000016B006F010E0025016E000E0121036EF9
:1018D0000150320FE96E000E0320EA6E0001F3C0E2
:1018E000EFFF31500E0DF3500101016B006F020E3E
:1018F0000025016E000E0121036E0150320FE96ECA
:10190000000E0320EA6E0001F2C0EFFF31500E0D11
:10191000F3500101016B006F030E0025016E000EF4
:101920000121036E0150320FE96E000E0320EA6EB2
:101930000001F1C0EFFF31500E0DF3500101016BBA
:10194000006F040E0025016E000E0121036E015090
:10195000320FE96E000E0320EA6EF5C0EFFF315042
:101960000E0DF350016B006F050E0025016E000E89
:101970000121036E0150320FE96E000E0320EA6E62
:10198000F6C0EFFF0001FF6BF551FF5D2AE2315019
:101990000E0DF3500101016B006F060E0001FF25D3
:1019A000036A01010025016E015103220150320F2B
:1019B000016E000E032203C004F1036A0001FF510F
:1019C000F70FE96E000E0320EA6EEFCF05F101017B
:1019D00004C1EAFF01C0E9FF05C1EFFF0001FF2BD1
:1019E000D3D7312A8DD00101016BF70E006F60AEA5
:1019F00018D0F10E6F146F6E0001F699A490F69155
:101A000074BEF681749E60A40BD0000E60B0010E0F
:101A1000070B006ED8900036F10EF6150010F66F29
:101A200020D00F0150AF19D0F10E6F140A096F6E5C
:101A30000001F689A492F69174BCF681749C0F01A2
:101A40005051070B070B006ED8900036F10E0001C5
:101A5000F6150010F66F05D00F01000E016E50D084
:101A6000000165500F0BF56FF69B65BCF68BF69D7C
:101A700062B6F68D000EF6BD010E0101056F0F0E68
:101A80000D6F640E0C6F05C10EF1000182DD03C005
:101A9000F4F002C0F3F001C0F2F000C0F1F00F0E5C
:101AA0000101046F660E036F026B0001F551010125
:101AB000025D14E203C1E9FF04C1EAFFEFCF07F1C1
:101AC00001C1EAFF00C1E9FF07C1EFFF002BD8B455
:101AD000012B032BD8B4042B022BE7D7F10E6F1484
:101AE0006F6E0001F69FA4BEF68FA49EF6A904D0E7
:101AF0000F01509F03D00001609E0F01010E016E87
:101B00000001000C010103BF11D00F0E006E02395D
:101B100000160A0E005C03E2300E002602D00351CC
:101B20000026005004009EA8FDD7AD6E0F0E0217D0
:101B30000A0E025D02E2300E02D0039F035102271B
:101B4000025104009EA8FDD7AD6E0001000C20508C
:101B50006108D8A4A8D10101036BF80E026F312CE3
:101B600001D031063150FF08D8B4A9D031500E0D44
:101B7000F350066B056F320E0525E96E000E062147
:101B8000EA6EEFCF07F131500E0DF350096B086F7D
:101B9000010E0825016E000E0921036E0150320F5F
:101BA000E96E000E0320EA6EEFCF0AF131500E0D00
:101BB000F3500C6B0B6F020E0B25016E000E0C2107
:101BC000036E0150320FE96E000E0320EA6EEFCF74
:101BD0000DF131500E0DF3500F6B0E6F030E0E25ED
:101BE000016E000E0F21036E0150320FE96E000EE0
:101BF0000320EA6EEFCF10F107C1F4F00AC1F3F051
:101C00000DC1F2F010C1F1F031500E0DF350066B22
:101C1000056F040E0525016E000E0621036E0150AE
:101C2000320FE96E000E0320EA6EEFCFF5F00001EF
:101C300031500E0DF3500101066B056F050E0525A1
:101C4000016E000E0621036E0150320FE96E000E88
:101C50000320EA6EEFCFF6F000010101046B0001F2
:101C6000F5510101045D26E2036A04510225016E6B
:101C70000351032201C005F103C006F131500E0DDE
:101C8000F350086B076F060E0425036A0725016EE3
:101C9000085103220150320FE96E000E0320EA6E54
:101CA000EFCF0AF106C1EAFF05C1E9FF0AC1EFFF64
:101CB000042BD5D73106010E016E04D003D0000EDF
:101CC000016E00D00A0E04009EA8FDD7AD6E0D0E69
:101CD00004009EA8FDD7AD6E006B0051000185EC9D
:101CE00000F00101002B006E04009EA8FDD7AD6E30
:101CF000100E005DF2E1006B0051000196EC00F067
:101D00000101002B006E04009EA8FDD7AD6E100EE1
:101D1000005DF2E1006B00510001A7EC00F0010151
:101D2000002B006E04009EA8FDD7AD6E090E005D6D
:101D3000F2E1F1C002F1370E036F0001E3DE0B0E9A
:101D40000101016F01510001A7EC00F00101012B1D
:101D5000006E04009EA8FDD7AD6E100E015DF2E18D
:101D6000006B00510001B8EC00F00101002B006E87
:101D700004009EA8FDD7AD6E090E005DF2E1F5C02E
:101D800002F1370E036F0001BDDE0B0E0101016F82
:101D900001510001B8EC00F00101012B006E0400BC
:101DA0009EA8FDD7AD6E100E015DF2E1006B0051F3
:101DB0000001C9EC00F00101002B006E04009EA898
:101DC000FDD7AD6E090E005DF2E1F6C002F1370EEF
:101DD000036F000197DE0B0E0101016F015100013D
:101DE000C9EC00F00101012B006E04009EA8FDD794
:101DF000AD6E100E015DF2E10001F76BF551F75D7C
:101E000042E2036AF751F80FE96E000E0320EA6E12
:101E1000EFCF00F10101016B01510001DAEC00F09C
:101E20000101012B006E04009EA8FDD7AD6E070EC8
:101E3000015DF2E1F7C002F11B0E036F00016BECD4
:101E400007F05D0E04009EA8FDD7AD6E3D0E0400A8
:101E50009EA8FDD7AD6E00C102F1370E0101036FE0
:101E6000000150DE2A0E04009EA8FDD7AD6E0A0EBA
:101E700004009EA8FDD7AD6E0D0E04009EA8FDD7F0
:101E8000AD6EF72BBBD70101006B0051000185EC53
:101E900000F00101002B006E04009EA8FDD7AD6E7E
:101EA000100E005DF2E10001000C2F2C10D0F16B40
:101EB000F151ADEC05F0F12B006E04009EA8FDD7AA
:101EC000AD6E2F0EF15DF4E154DC41DE01D051DC4A
:101ED000A49062EF00F02F2C10D0F16BF151CDECFB
:101EE00005F0F12B006E04009EA8FDD7AD6E2F0EFD
:101EF000F15DF4E13EDC2BDE01D03BDCA49262EF2D
:101F000000F0010EEA6EE96EEF5011E0060E016E70
:101F1000BF0E006E0400002EFDD7012EF9D77A0EF9
:101F2000006E002EFED700D00400EF2EEFD7000C7D
:101F300012C119F111C118F10101175352E018C172
:101F4000E9FF19C1EAFF13C1EFFF1851D8B419070F
:101F5000180718C1E9FF19C1EAFF14C1EFFF1851B2
:101F6000D8B41907180718C1E9FF19C1EAFF1551BC
:101F7000030BEF6E18C1E9FF19C1EAFF15C100F0AC
:101F8000003600360036F80E00160050E00BEF1059
:101F9000EF6E18C1E9FF19C1EAFFEF500809EF6EB3
:101FA0001851D8B41907180718C1E9FF19C1EAFF79
:101FB00015C100F0003A0032070E00160050070B62
:101FC000EF6E18C1E9FF19C1EAFF16C100F0003633
:101FD00000360036F80E00160050F80BEF10EF6ECA
:101FE0003FD018C1E9FF19C1EAFFEF6A1851D8B410
:101FF0001907180718C1E9FF19C1EAFFEF6A18515C
:10200000D8B41907180718C1E9FF19C1EAFF13C1AD
:1020100000F0003A0036E00E00160050E00BEF6EC4
:102020001851D8B41907180718C1E9FF19C1EAFFF8
:1020300013C100F00032003200321F0E00160050B3
:102040001F0BEF6E18C1E9FF19C1EAFF14C100F0C0
:10205000003A0036E00E00160050E00BEF10EF6E75
:102060000001000C0F0E01010F6F660E0E6F0F01C5
:1020700040B708D0F10E6F1408096F6E0101106BA4
:102080001BD00F0130B709D0F10E6F1406096F6E27
:10209000010E0101106F10D00F0120B709D0F10E11
:1020A0006F1404096F6E020E0101106F05D00F014D
:1020B000000E016E3DD001010A51030B006EFC0EB3
:1020C00060140010606E0F0E126F640E116F06C167
:1020D00016F105C115F104C114F103C113F10BC1CF
:1020E00017F1000125DF09C165FF659C01010CB1F5
:1020F000658C0D6B09510D5D14E207C1E9FF08C144
:10210000EAFFEFCF13F10FC1EAFF0EC1E9FF13C1E0
:10211000EFFF0E2BD8B40F2B072BD8B4082B0D2BA9
:10212000E9D76086F10E6F146F6E010E016E0F011C
:102130000001000C4050080801E140064050FF0833
:10214000D8B40BD10A0E0101016F0001DADE405054
:102150000D0DF3500101026B016F410E0125E96E77
:10216000000E0221EA6EEFCF03F140500D0DF35047
:10217000056B046F010E0425016E000E0521036E30
:102180000150410FE96E000E0320EA6EEFCF06F119
:1021900040500D0DF350086B076F020E0725016EBE
:1021A000000E0821036E0150410FE96E000E03205E
:1021B000EA6EEFCF09F140500D0DF3500B6B0A6F33
:1021C000030E0A25016E000E0B21036E0150410F14
:1021D000E96E000E0320EA6EEFCF0CF103C1F4F0BC
:1021E00006C1F3F009C1F2F00CC1F1F040500D0D41
:1021F000F350026B016F0C0E0125016E000E0221DF
:10220000036E0150410FE96E000E0320EA6EEF38B5
:102210000001F56F0F0EF51740500D0DF350010141
:10222000026B016F0C0E0125016E000E0221036E80
:102230000150410FE96E000E0320EA6EEF500C0BC7
:10224000006E00300001F66FF6333F0EF617405077
:102250000D0DF3500101026B016F0C0E0125016E93
:10226000000E0221036E0150410FE96E000E0320A3
:10227000EA6EEFCF03F10001FF91010103A303D048
:102280000001FF81010140500D0DF350026B016F01
:102290000C0E0125016E000E0221036E0150410F4C
:1022A000E96E000E0320EA6EEFCF03F10001FF9309
:1022B000010103A103D00001FF830101006B0001B4
:1022C000F5510101005D26E2036A0051F70F016E2E
:1022D000000E032201C001F103C002F140500D0DB8
:1022E000F350046B036F040E0025036A0325016E8F
:1022F000045103220150410FE96E000E0320EA6EE3
:10230000EFCF06F102C1EAFF01C1E9FF06C1EFFF0D
:10231000002BD5D7000E0001FFB1010E0101016FA6
:10232000000E0001FFB3010E0101026FF4C006F1BF
:10233000F3C005F1F2C004F1F1C003F1086BF70E30
:10234000076FF5C009F1F6C00AF101C10BF102C136
:102350000CF1000187DE400601D000D0000CEADE5F
:10236000A49462EF00F0E6DEA49662EF00F0E2DEF5
:10237000A49862EF00F02F2C0DD0F16BF151EDEC31
:1023800005F0F12B006E04009EA8FDD7AD6E2B0E5C
:10239000F15DF4E1A49E62EF00F02F2C0DD0F16B03
:1023A000F1510BEC06F0F12B006E04009EA8FDD756
:1023B000AD6E2D0EF15DF4E1A49A62EF00F0006ABB
:1023C000016AEA51D890EBB1002600320132EBB33A
:1023D000002600320132EBB5002600320132EBB7A5
:1023E000002600320132EBB9002600320132EBBB8D
:1023F000002600320132EBBD002600320132EBBF75
:1024000000260032013271EF12F0E86BE66B0A0E23
:10241000E76FE56BE351E41103E1000E016EC1D0FB
:10242000E851E82B036AE325E96EE4510320EA6EE4
:10243000EFCFE9F0E9512D080DE1010EE66FE8510B
:10244000E82B036AE325E96EE4510320EA6EEFCF3F
:10245000E9F00DD0E9512B080AE1E851E82B036AB5
:10246000E325E96EE4510320EA6EEFCFE9F0E9518C
:102470002F08D8B08ED0E9513908D8A08AD0E951B8
:10248000300821E1036AE851E325E96EE4510320B5
:10249000EA6EEF5078080AE0036AE851E325E96E36
:1024A000E4510320EA6EEF5058080DE1100EE76F7B
:1024B000E82BE851E82B036AE325E96EE451032099
:1024C000EA6EEFCFE9F0E7510A081BE1E9512F0866
:1024D00017E2E951390814E30A0EEA6FE5C0EBF0A0
:1024E0006ED7300EE95D0124E56FE851E82B036AF1
:1024F000E325E96EE4510320EA6EEFCFE9F0E6D779
:1025000048D0E751100845E1E951600806E2E95179
:102510007A0803E3E951DF0B01D0E951E96FE95192
:102520002F0803E2E951390806E2E951400831E297
:10253000E95146082EE3E9512F080CE2E951390828
:1025400009E3E539EA6FF00EEA17300EE95DEA2596
:10255000E56F09D0E539EA6FF00EEA17410EE95D43
:102560000A0FEA25E56FE851E82B036AE325E96ED7
:10257000E4510320EA6EEFCFE9F0E951600806E28A
:10258000E9517A0803E3E951DF0B01D0E951E96F22
:10259000C6D7E62D04D0E7510A0801E1E56DE5C094
:1025A00001F0000C0A0E04009EA8FDD7AD6E0D0EC2
:1025B00004009EA8FDD7AD6EE26BE251DCEC01F0A9
:1025C000E22B006E04009EA8FDD7AD6E1F0EE25DEB
:1025D000F4E1E26BE25173EC02F0E22B006E0400D6
:1025E0009EA8FDD7AD6E1F0EE25DF4E1E26BE251F5
:1025F00090EC02F0E22B006E04009EA8FDD7AD6EB9
:102600001F0EE25DF4E1E26BE251ADEC02F0E22B71
:10261000006E04009EA8FDD7AD6E1F0EE25DF4E1D2
:10262000E26BE251CAEC02F0E22B006E04009EA8BD
:10263000FDD7AD6E1F0EE25DF4E1E26BE251E7EC17
:1026400002F0E22B006E04009EA8FDD7AD6E1F0EB7
:10265000E25DF4E1E26BE251DCEC01F0E22B006EB2
:1026600004009EA8FDD7AD6E1F0EE25DF4E19EBA98
:1026700001D0FDD704009EAAFDD7AECFDFF0DF5119
:102680006108D8A4ACD0E26BE251EBEC00F0E22B95
:10269000006E04009EA8FDD7AD6E180EE25DF4E159
:1026A000F2CFE2F0F29E040EA96EA69CA69EA68032
:1026B000A850E2BFF28EE36FE46BE45104EC03F048
:1026C000E42B006E005004009EA8FDD7AD6E110EE5
:1026D000E45DF3E1186AF2BE188EF29EE3C002F1E7
:1026E0001B0E0101036F00016BEC07F018BEF28EA8
:1026F000130EE56FE55104EC03F0E52B006E00507E
:1027000004009EA8FDD7AD6E180EE55DF3E1E26B07
:10271000E2511EEC03F0E22B006E04009EA8FDD7F0
:10272000AD6E1A0EE25DF4E1E26BE25139EC03F0BA
:10273000E22B006E04009EA8FDD7AD6E0B0EE25D8D
:10274000F4E1EA6AC10EE96EE906E92A04009EAAEC
:10275000FDD7AECFEFFF0D0EEF5CF7E1EF6AE46B54
:10276000C10EE36F52DE01C0E0F0E26BE2514CECCF
:1027700003F0E22B006E04009EA8FDD7AD6E110E93
:10278000E25DF4E1EA6AC10EE96EE906E92A0400B5
:102790009EAAFDD7AECFEFFF0D0EEF5CF7E1EF6A1B
:1027A0000D0E036ECE0EC10818E1035216E1040EA1
:1027B000A96EE0C0A8FFA69CA69EA684F2CF00F05A
:1027C000F29E0F01550EA76EAA0EA76EA682A6B2A4
:1027D000FED7A6940050F212000168EF18F0DF5106
:1027E0007208D8A478D0E26BE25162EC03F0E22BDD
:1027F000006E04009EA8FDD7AD6E100EE25DF4E100
:10280000EA6AC10EE96EE906E92A04009EAAFDD72C
:10281000AECFEFFF0D0EEF5CF7E1EF6AE46BC10E98
:10282000E36FF3DD01C0E2F0E46BC10EE36FEDDDB9
:1028300001C0E3F0F2CFE4F0F29EE3C0A9FFA69C52
:10284000A69EA680A850E4BFF28EE46FE56BE5512A
:1028500078EC03F0E52B006E005004009EA8FDD735
:10286000AD6E0B0EE55DF3E1186AF2BE188EF29EB6
:10287000E2C002F1370E0101036F000182EC0DF09E
:1028800018BEF28E3D0E04009EA8FDD7AD6E300E30
:1028900004009EA8FDD7AD6E780E04009EA8FDD75B
:1028A000AD6E186AF2BE188EF29EE4C002F1370EC9
:1028B0000101036F000182EC0DF018BEF28E0A0ECA
:1028C00004009EA8FDD7AD6E0D0E04009EA8FDD796
:1028D000AD6E68EF18F0DF517708D8A46ED0E26BC8
:1028E000E25190EC03F0E22B006E04009EA8FDD7AD
:1028F000AD6E150EE25DF4E1EA6AC10EE96EE9061D
:10290000E92A04009EAAFDD7AECFEFFF0D0EEF5CC3
:10291000F7E1EF6AE46BC10EE36F77DD01C0E0F031
:10292000E26BE25190EC03F0E22B006E04009EA8F3
:10293000FDD7AD6E150EE25DF4E1E46BC10EE36F01
:1029400064DD01C0E1F0E26BE2514CEC03F0E22BFC
:10295000006E04009EA8FDD7AD6E110EE25DF4E19D
:10296000EA6AC10EE96EE906E92A04009EAAFDD7CB
:10297000AECFEFFF0D0EEF5CF7E1EF6A0D0E036EC9
:10298000D00EC10818E1035216E1E0C0A9FFE1C072
:10299000A8FFA69CA69EA684F2CF00F0F29E0F018F
:1029A000550EA76EAA0EA76EA682A6B2FED7A69453
:1029B0000050F212000168EF18F0DF51710803E1D6
:1029C000FF0068EF18F0DF516308D8A468EF18F033
:1029D000E26BE251A8EC03F0E22B006E04009EA82B
:1029E000FDD7AD6E1A0EE25DF4E1F2CFE2F0F29E99
:1029F000040EA96EA69CA69EA680A850E2BFF28EE9
:102A0000E36FE46BE451C3EC03F0E42B006E005081
:102A100004009EA8FDD7AD6E0E0EE45DF3E1186ACA
:102A2000F2BE188EF29EE3C002F11B0E0101036F8D
:102A300000016BEC07F018BEF28E100EE56FE55149
:102A4000C3EC03F0E52B006E005004009EA8FDD7F8
:102A5000AD6E1A0EE55DF3E1F2CFE2F0F29E060EE6
:102A6000A96EA69CA69EA680A850E2BFF28EE36F38
:102A7000E46BE451DEEC03F0E42B006E0050040044
:102A80009EA8FDD7AD6E0E0EE45DF3E1186AF2BEAE
:102A9000188EF29EE3C002F11B0E0101036F0001CC
:102AA0006BEC07F018BEF28E100EE56FE551DEEC10
:102AB00003F0E52B006E005004009EA8FDD7AD6E1C
:102AC0001A0EE55DF3E1F2CFE2F0F29E010EA96E7F
:102AD000A69CA69EA680A850E2BFF28EE36FE46B90
:102AE000E451F9EC03F0E42B006E005004009EA8C2
:102AF000FDD7AD6E110EE45DF3E1186AF2BE188EDB
:102B0000F29EE3C002F11B0E0101036F00016BECAA
:102B100007F018BEF28E130EE56FE551F9EC03F0E5
:102B2000E52B006E005004009EA8FDD7AD6E1A0E76
:102B3000E55DF3E1F2CFE2F0F29E050EA96EA69CF0
:102B4000A69EA680A850E2BFF28EE36FE46BE4512C
:102B500014EC04F0E42B006E005004009EA8FDD796
:102B6000AD6E130EE45DF3E1186AF2BE188EF29EAC
:102B7000E3C002F11B0E0101036F00016BEC07F0D3
:102B800018BEF28E150EE56FE55114EC04F0E52B3E
:102B9000006E005004009EA8FDD7AD6E1A0EE55DD4
:102BA000F3E1F2CFE2F0F29E020EA96EA69CA69E81
:102BB000A680A850E2BFF28EE36FE46BE4512FECE5
:102BC00004F0E42B006E005004009EA8FDD7AD6E0B
:102BD000110EE45DF3E1186AF2BE188EF29EE3C0B6
:102BE00002F11B0E0101036F00016BEC07F018BE30
:102BF000F28E130EE56FE5512FEC04F0E52B006E1D
:102C0000005004009EA8FDD7AD6E1A0EE55DF3E1FD
:102C1000F2CFE2F0F29E030EA96EA69CA69EA680BD
:102C2000A850E2BFF28EE36FE46BE4514AEC04F08B
:102C3000E42B006E005004009EA8FDD7AD6E100E70
:102C4000E45DF3E1186AF2BE188EF29EE3C002F171
:102C50001B0E0101036F00016BEC07F018BEF28E32
:102C6000120EE56FE5514AEC04F0E52B006E0050C2
:102C700004009EA8FDD7AD6E1A0EE55DF3E1E26B90
:102C8000E25165EC04F0E22B006E04009EA8FDD733
:102C9000AD6E1C0EE25DF4E1E26BE25181EC04F0FA
:102CA000E22B006E04009EA8FDD7AD6E080EE25D1B
:102CB000F4E1EA6AC10EE96EE906E92A04009EAA77
:102CC000FDD7AECFEFFF0D0EEF5CF7E1EF6AE46BDF
:102CD000C10EE36F05EC12F001C0E0F0E26BE251CF
:102CE00093EC04F0E22B006E04009EA8FDD7AD6EBD
:102CF000190EE25DF4E1EA6AC10EE96EE906E92A1D
:102D000004009EAAFDD7AECFEFFF0D0EEF5CF7E1FA
:102D1000EF6A0D0E036ED20EC10818E1035216E1E0
:102D2000070EA96EE0C0A8FFA69CA69EA684F2CFBF
:102D300000F0F29E0F01550EA76EAA0EA76EA68296
:102D4000A6B2FED7A6940050F2120001E26BE25147
:102D5000ADEC04F0E22B006E04009EA8FDD7AD6E32
:102D60000B0EE25DF4E1EA6AC10EE96EE906E92ABA
:102D700004009EAAFDD7AECFEFFF0D0EEF5CF7E18A
:102D8000EF6AE46BC10EE36F05EC12F001C0E0F0F6
:102D9000E26BE251C0EC04F0E22B006E04009EA84E
:102DA000FDD7AD6E1C0EE25DF4E1EA6AC10EE96E7C
:102DB000E906E92A04009EAAFDD7AECFEFFF0D0E6B
:102DC000EF5CF7E1EF6A0D0E036ED40EC10818E157
:102DD000035216E1010EA96EE0C0A8FFA69CA69EB4
:102DE000A684F2CF00F0F29E0F01550EA76EAA0E38
:102DF000A76EA682A6B2FED7A6940050F2120001DA
:102E0000E26BE251DCEC04F0E22B006E04009EA8C1
:102E1000FDD7AD6E0B0EE25DF4E1EA6AC10EE96E1C
:102E2000E906E92A04009EAAFDD7AECFEFFF0D0EFA
:102E3000EF5CF7E1EF6AE46BC10EE36F05EC12F0B3
:102E400001C0E0F0E26BE251EFEC04F0E22B006E27
:102E500004009EA8FDD7AD6E1C0EE25DF4E1EA6AA7
:102E6000C10EE96EE906E92A04009EAAFDD7AECF9D
:102E7000EFFF0D0EEF5CF7E1EF6A0D0E036ED60E5D
:102E8000C10818E1035216E1020EA96EE0C0A8FFC6
:102E9000A69CA69EA684F2CF00F0F29E0F01550ECE
:102EA000A76EAA0EA76EA682A6B2FED7A694005061
:102EB000F2120001E26BE2510BEC05F0E22B006E26
:102EC00004009EA8FDD7AD6E0A0EE25DF4E1EA6A49
:102ED000C10EE96EE906E92A04009EAAFDD7AECF2D
:102EE000EFFF0D0EEF5CF7E1EF6AE46BC10EE36FED
:102EF00005EC12F001C0E0F0E26BE2511EEC05F0CF
:102F0000E22B006E04009EA8FDD7AD6E1B0EE25DA5
:102F1000F4E1EA6AC10EE96EE906E92A04009EAA14
:102F2000FDD7AECFEFFF0D0EEF5CF7E1EF6A0D0EB0
:102F3000036ED80EC10818E1035216E1030EA96E04
:102F4000E0C0A8FFA69CA69EA684F2CF00F0F29E49
:102F50000F01550EA76EAA0EA76EA682A6B2FED7C7
:102F6000A6940050F2120001E26BE25139EC05F038
:102F7000E22B006E04009EA8FDD7AD6E080EE25D48
:102F8000F4E1EA6AC10EE96EE906E92A04009EAAA4
:102F9000FDD7AECFEFFF0D0EEF5CF7E1EF6AE46B0C
:102FA000C10EE36F05EC12F001C0E0F0E26BE251FC
:102FB0004BEC05F0E22B006E04009EA8FDD7AD6E31
:102FC000190EE25DF4E1EA6AC10EE96EE906E92A4A
:102FD00004009EAAFDD7AECFEFFF0D0EEF5CF7E128
:102FE000EF6A0D0E036EDA0EC10818E1035216E106
:102FF000060EA96EE0C0A8FFA69CA69EA684F2CFEE
:1030000000F0F29E0F01550EA76EAA0EA76EA682C3
:10301000A6B2FED7A6940050F2120001E26BE25174
:1030200065EC05F0E22B006E04009EA8FDD7AD6EA6
:103030000D0EE25DF4E1EA6AC10EE96EE906E92AE5
:1030400004009EAAFDD7AECFEFFF0D0EEF5CF7E1B7
:10305000EF6AE46BC10EE36F05EC12F001C0E0F023
:10306000E26BE25179EC05F0E22B006E04009EA8C1
:10307000FDD7AD6E1E0EE25DF4E1EA6AC10EE96EA7
:10308000E906E92A04009EAAFDD7AECFEFFF0D0E98
:10309000EF5CF7E1EF6A0D0E036EDC0EC10818E17C
:1030A000035216E1050EA96EE0C0A8FFA69CA69EDD
:1030B000A684F2CF00F0F29E0F01550EA76EAA0E65
:1030C000A76EA682A6B2FED7A6940050F212000107
:1030D000D2EF12F0EEEF1CF0C139700B006ED890F9
:1030E00000361F0E6F1400106F6E6ECF00F0003AA6
:1030F0000030070BC15DF9E1000CC00E701404092B
:10310000706E3F0E7014706EF80E71140209716EBD
:10311000C70E71142809716E719C718EF80E7214AD
:103120000509726E729C99EF18F0040EC16FD4DF1E
:10313000E4D7606A9F0E6014606E608460CF50FFB9
:10314000739A7398186AF2BE188EF29E0F0E0101E0
:10315000126F1B0E116F166B156B146B136B176BC5
:10316000000198EC0FF018BEF28E186AF2BE188EAD
:10317000F29E0F0E0101126F030E116F166B156B8D
:10318000146B136B176B000198EC0FF018BEF28EE6
:10319000186AF2BE188EF29E0F0E0101126F070E12
:1031A000116F166B156B146B136B176B000198EC9A
:1031B0000FF018BEF28E186AF2BE188EF29E0F0E35
:1031C0000101126F1F0E116F166B156B146B136BD1
:1031D000176B000198EC0FF018BEF28E186AF2BE61
:1031E000188EF29E0F0E0101126F0B0E116F166BEF
:1031F000156B146B136B176B000198EC0FF018BE76
:10320000F28E186AF2BE188EF29E0F0E0101126F36
:10321000116F166B156B146B136B176B000198EC29
:103220000FF018BEF28E186AF2BE188EF29E0F0EC4
:103230000101126F130E116F166B156B146B136B6C
:10324000176B000198EC0FF018BEF28E186AF2BEF0
:10325000188EF29E0F0E0101126F170E116F166B72
:10326000156B146B136B176B000198EC0FF018BE05
:10327000F28E9350FB0B0809936EC16B2DDF0CEFA0
:103280001DF0D539006E0032070E00160050070BF6
:10329000D76FD535006E00360036F80E0016005098
:1032A000F80BD7C003F0016ED7C002F0000C010E7E
:1032B00040240708D8A097D0010E40240D0DF350EC
:1032C000E46BE36F410EE325E96E000EE421EA6E44
:1032D000DAC0EFFF010E40240D0DF350E46BE36FF5
:1032E000010EE325016E000EE421036E0150410F33
:1032F000E96E000E0320EA6ED9C0EFFF010E4024F4
:103300000D0DF350E46BE36F020EE325016E000E2A
:10331000E421036E0150410FE96E000E0320EA6EB6
:10332000D8C0EFFF010E40240D0DF350E46BE36FA6
:10333000030EE325016E000EE421036E0150410FE0
:10334000E96E000E0320EA6ED7C0EFFFE16BDD519E
:10335000E15D25E2010E40240D0DF350E46BE36FB7
:10336000040EE125036AE325016EE45103220150B6
:10337000410F016E000E032203C0E7F0036AE15122
:10338000DB25E96EDC510320EA6EEFCFE8F0E7C001
:10339000EAFF01C0E9FFE8C0EFFFE12BD8D7010E3B
:1033A00040240D0DF350E46BE36F0C0EE325016E2A
:1033B000000EE421036E0150410FE96E000E032060
:1033C000EA6EDD39E76FF00EE717DE35006E003686
:1033D000FC0E00160050E711E86FD890DF35E811B9
:1033E000E011EF6E402A000CC551E96EC6C0EAFF3D
:1033F000EFCFC8F0010EC525E96E000EC621EA6EBA
:10340000EFCFC9F0020EC525E96E000EC621EA6EA7
:10341000EFCFCAF0030EC525E96E000EC621EA6E95
:10342000EFCFCBF0040EC525E96E000EC621EA6E83
:10343000EFCFCCF0050EC525E96E000EC621EA6E71
:10344000EFCFCDF0D56BD55158EC02F0D52B006EF7
:1034500004009EA8FDD7AD6E050ED55DF4E1186A97
:10346000F2BE188EF29ECBC002F1370E0101036F3F
:10347000000182EC0DF018BEF28E070ED66FD65109
:1034800058EC02F0D62B006E04009EA8FDD7AD6E5E
:103490000E0ED65DF4E1186AF2BE188EF29ECCC014
:1034A00002F1370E0101036F000182EC0DF018BE2E
:1034B000F28E100ED76FD75158EC02F0D72B006E5A
:1034C00004009EA8FDD7AD6E170ED75DF4E1186A13
:1034D000F2BE188EF29ECDC002F1370E0101036FCD
:1034E000000182EC0DF018BEF28E0A0E04009EA8B8
:1034F000FDD7AD6E0D0E04009EA8FDD7AD6E010E7A
:10350000CB5DF20FD8B0C6D00E0F4CEF1BF022806F
:10351000CC530DE1010E006EC851016E04E0D8904D
:103520000036012EFCD70050FF0A24160BD0010EE6
:10353000006EC851016E04E0D8900036012EFCD711
:1035400000502412A7D0CAC0CEF023C0CFF0C8C00C
:10355000D0F0030ED16F24C000F0C851016E04E01A
:10356000D8900032012EFCD7D26B00B0D22BC9C04C
:10357000D5F087DE02C0D6F001C0D5F0DA6BD96B8A
:1035800002C0D8F001C0D7F0DC6BCE0EDB6F050EA9
:10359000DD6FDE6BDF6BE06B8ADE7CD0CAC0CEF005
:1035A00023C0CFF0C8C0D0F0050ED16FC9C0D5F090
:1035B00068DE02C0D6F001C0D5F0DA6BD96B02C06C
:1035C000D8F001C0D7F0DC6BCE0EDB6F040EDD6FE0
:1035D000DE6BDF6BE06B6BDE5DD0FF005BD0CCC0E1
:1035E000A9FFCDC0A8FFA69CA69EA684F2CF00F09E
:1035F000F29E0F01550EA76EAA0EA76EA682A6B266
:10360000FED7A6940050F212000144D0CAC0CEF0FA
:1036100023C0CFF0C8C0D0F0080ED16FCCC0D2F01C
:10362000F2CFD5F0F29ECCC0A9FFA69CA69EA680A4
:10363000A850D5BFF28ED36FC9C0D5F022DE02C02C
:10364000D6F001C0D5F0DA6BD96B02C0D8F001C05A
:10365000D7F0DC6BCE0EDB6F060EDD6FDE6BDF6B43
:10366000E06B25DE17D0040EA96ECCC0A8FFA69C87
:10367000A69EA684F2CF00F0F29E0F01550EA76E13
:10368000AA0EA76EA682A6B2FED7A6940050F2128A
:10369000000100D0C0EF1FF0F2CF0EF0F29EE82440
:1036A000F76AF736BD0FF66E360EF7220A00F550B0
:1036B000FA6E0800F5500EBEF28EF96E0E354635E4
:1036C00094369C359436DE350C369436DA3594369D
:1036D0009436943694366636D3530AE1D15304E0D7
:1036E000010E016E18D003D0000E016E14D013D05D
:1036F000D32D11D0D12D0CD0D2530AE1D05304E0F8
:10370000000E016E08D003D0010E016E04D003D06C
:10371000020E016E00D009EF1CF025C0C4F0256A2E
:1037200024C0C3F0928080A02580928280A225824E
:10373000928480A42584928680A62586928880A87B
:103740002588928A80AA258A938281A2258C9380DB
:1037500081A0258E2552D8A4229022A001D0BED0CF
:10376000C16BC1510708D8A076D0C26BC2510708FF
:10377000D8A06FD0036AC151270FE96E000E032055
:10378000EA6EEFCFCCF0CCC000F0C251016E04E085
:10379000D8900032012EFCD700A059D024C000F0F0
:1037A000C251016E04E0D8900032012EFCD7000E09
:1037B00000B0010ECC6F25C000F0C151016E04E0D5
:1037C000D8900032012EFCD7000E00B0010ECD6F54
:1037D000C4C000F0C151016E04E0D8900032012E47
:1037E000FCD7000E00B0010ECE6F26C000F0C15114
:1037F000016E04E0D8900032012EFCD7000E00B01C
:10380000010ECCC0D0F0CDC0D1F0CEC0D2F0D36F7D
:1038100063D701C0C5F0C52D0CD0010E006EC2519A
:10382000016E04E0D8900036012EFCD70050C3137F
:103830000ED0C5530CE1010E006EC251016E04E0C2
:10384000D8900036012EFCD70050FF0AC317C22BB8
:103850008DD7C12B86D7C16BC15107083DE3C3C0CB
:1038600000F0C151016E04E0D8900032012EFCD767
:10387000000E00B0010ECC6F24C000F0C151016EEB
:1038800004E0D8900032012EFCD7000E00B0010EEB
:10389000CC5D20E0C66B23C0C7F0C1C0C8F00D0EE0
:1038A000C96FC3C000F0C151016E04E0D89000326E
:1038B000012EFCD7CA6B00B0CA2BDA6BD96BD86B60
:1038C000D76BDC6BC60EDB6F050EDD6FDE6BDF6B5F
:1038D000E06BEDDCC12BC0D7C3C024F0C3EF1FF0F9
:1038E000F86AD09E0D8EEA6AE96AB886080EAF6E55
:1038F000020EB06EA60EAC6E900EAB6EC150C00B39
:103900000F09C16E196A1A6A1F6AFF0E316E229280
:10391000406E2284D0500F0BD0A8000ED080D082F1
:10392000D088D886D888C16FC26BC2512AEC06F005
:10393000C22B006E04009EA8FDD7AD6E110EC25DB5
:10394000F4E1186AF2BE188EF29EC1C002F1370E81
:103950000101036F000182EC0DF018BEF28E0D0E16
:1039600004009EA8FDD7AD6E0A0E04009EA8FDD7E8
:10397000AD6EC16BC15142EC06F0C12B006E04006C
:103980009EA8FDD7AD6E380EC15DF4E12F6A22907E
:10399000AA6BA96B9EBA10D0A92BD8B4AA2BAA5196
:1039A0004E080AE303E1A9511F0806E30400A60E2E
:1039B000006E002EFED7EED79EAA1FD004009EAA4E
:1039C000FDD7AECFB1F0B151640803E1010E2F6E07
:1039D00005D0B151630802E1D2EF12F0C16BC151C1
:1039E0006CEC06F0C12B006E04009EA8FDD7AD6EF6
:1039F0002F0EC15DF4E19D8A0DD0C16BC15191ECD8
:103A000006F0C12B006E04009EA8FDD7AD6E1D0E02
:103A1000C15DF4E195EF18F0040EC16F6CEC18F085
:103A2000A96A0A0EA86EA69CA69EA684F2CF00F0F4
:103A3000F29E0F01550EA76EAA0EA76EA682A6B221
:103A4000FED7A6940050F212F2CFC1F0F29E070EFC
:103A5000A96EA69CA69EA680A8500001C1BFF28EAA
:103A6000AB6FF2CFC1F0F29E030EA96EA69CA69E8C
:103A7000A680A850C1BFF28EAC6FF2CFC1F0F29E0B
:103A8000010EA96EA69CA69EA680A850C1BFF28E6C
:103A9000AD6FF2CFC1F0F29E020EA96EA69CA69E5B
:103AA000A680A850C1BFF28EAE6FF2CFC1F0F29ED9
:103AB000040EA96EA69CA69EA680A850C1BFF28E39
:103AC000236EF2CFC1F0F29E060EA96EA69CA69EB2
:103AD000A680A850C1BFF28EAF6FF2CFC1F0F29EA8
:103AE000050EA96EA69CA69EA680A850C1BFF28E08
:103AF000B06FAB3D17D0C16BC151ADEC06F0C12B1F
:103B0000006E04009EA8FDD7AD6E160EC15DF4E1F7
:103B1000AB6BAF6B010EAC6F020EAD6F010EB06FF1
:103B2000020EAE6F233C0FD0C16BC151C6EC06F044
:103B3000C12B006E04009EA8FDD7AD6E270EC15D9F
:103B4000F4E1300E236EF2CFC1F0F29E140EA96E96
:103B5000A69CA69EA680A850C1BFF28E266E216AA2
:103B60002150070818E3036A2150270FE96E000E61
:103B70000320EA6E0A0E2124C36FF2CFC4F0F29E36
:103B8000C3C0A9FFA69CA69EA680A850C4BFF28E63
:103B9000EF6E212AE5D7AB513F0B006EC00E7014BB
:103BA0000010706EAF39300B006ED89000360036C2
:103BB0003F0E70140010706EAC51070B006EF80EC3
:103BC00071140010716EAD51070B006ED890003665
:103BD00000360036C70E71140010716E719C719E14
:103BE000B0B1718EAE51070B006EF80E721400105A
:103BF000726E729CC16B6CEC18F0040EC16F6CECB1
:103C000018F0186AF2BE188EF29E0F0E0101126FA4
:103C10001B0E116F166B156BFF0E146F136F176B66
:103C2000000198EC0FF018BEF28E2338006E0032BF
:103C3000070E00160050070BC26F2334006E0036CB
:103C40000036F80E00160050F80BC46FC2C0C6F064
:103C5000C56F186AF2BE188EF29E0F0E0101126F28
:103C6000030E116F166B156BC2C014F1C4C013F1B3
:103C7000176B000198EC0FF018BEF28E186AF2BEB6
:103C8000188EF29E0F0E0101126F070E116F166B48
:103C9000156B690E146FF00E136F176B000198EC23
:103CA0000FF018BEF28E186AF2BE188EF29E0F0E3A
:103CB0000101126F1F0E116F166B156BFF0E146F43
:103CC000136F176B000198EC0FF018BEF28E23C033
:103CD000C2F0C16B186AF2BE188EF29E0F0E01017F
:103CE000126F0B0E116F166B156B23C014F1C1C050
:103CF00013F1176B000198EC0FF018BEF28E186AE2
:103D0000F2BE188EF29E0F0E0101126F116F166B2C
:103D1000156B690E146FF00E136F176B000198ECA2
:103D20000FF018BEF28E186AF2BE188EF29E0F0EB9
:103D30000101126F130E116F166B156BFF0E146FCE
:103D4000F00E136F176B000198EC0FF018BEF28E97
:103D5000186AF2BE188EF29E0F0E0101126F170E36
:103D6000116F166B156BFF0E146FF00E136F176B40
:103D7000000198EC0FF018BEF28EC16B6CEC18F0DD
:103D8000A380A382A384A386A388A38EA38AC15001
:103D9000C00B0F09C16EC290C69A949A94889496EB
:103DA000200EC66E400EC76E186AF2BE188EF29EC6
:103DB000F46BC3EC08F018BEF28E2F5202E1D180F2
:103DC00001D0D190800ED56ECD6A000ECA6E000E65
:103DD000CB6EB150480BB16EB56AA084A38EA38A96
:103DE000A382A380A08EC00EF212246A04000101F7
:103DF000036BB20E026F312C01D031063150FF0837
:103E0000D8B4A9D031500E0DF350066B056F320EA9
:103E10000525E96E000E0621EA6EEFCF07F131505D
:103E20000E0DF350096B086F010E0825016E000E90
:103E30000921036E0150320FE96E000E0320EA6E75
:103E4000EFCF0AF131500E0DF3500C6B0B6F020ED9
:103E50000B25016E000E0C21036E0150320FE96E2E
:103E6000000E0320EA6EEFCF0DF131500E0DF3502E
:103E70000F6B0E6F030E0E25016E000E0F21036EE9
:103E80000150320FE96E000E0320EA6EEFCF10F101
:103E900007C1BEF00AC1BDF00DC1BCF010C1BBF03E
:103EA00031500E0DF350066B056F040E0525016EA3
:103EB000000E0621036E0150320FE96E000E032042
:103EC000EA6EEFCFB9F0000131500E0DF350010151
:103ED000066B056F050E0525016E000E0621036EAB
:103EE0000150320FE96E000E0320EA6EEFCFB8F0FA
:103EF00000010101046B0001B9510101045D26E2DA
:103F0000036A04510225016E0351032201C005F129
:103F100003C006F131500E0DF350086B076F060E0B
:103F20000425036A0725016E085103220150320F50
:103F3000E96E000E0320EA6EEFCF0AF106C1EAFF38
:103F400005C1E9FF0AC1EFFF042BD5D73106010EE9
:103F5000016E04D003D0000E016E00D0015210E0BB
:103F6000BEC0C4F0BDC0C3F0BCC0C2F0BBC0C1F095
:103F70000001C66BB20EC56FB9C0C7F0F4EF19F0FF
:103F800000018DEF1BF0186AF2BE188EF29E24C05D
:103F9000F4F0C3EC08F018BEF28E186AF2BE188E68
:0E3FA000F29E9AEC10F018BEF28E20D70300AD
:020000040030CA
:0E00000000C21E0F000491000FC00FE00F4061
:00000001FF
;PIC18F2480
