:020000040000FA
:0400000051EF07F0C5
:08000800056ED8CF06F0E0CF31
:1000100007F00001E9CF0DF0EACF08F0E1CF09F0D9
:10002000E2CF0AF0D9CF0BF0DACF0CF0F3CF14F017
:10003000F4CF15F0FACF16F000C00FF001C010F0A9
:1000400002C011F003C012F004C013F0A3AE2CEFF5
:1000500000F0A4BE98EF05F0A3AA32EF00F0A4BA16
:10006000C9EF05F0A3A838EF00F0A4B894EF05F0AD
:10007000A3A63EEF00F0A4B690EF05F0A3A444EFD2
:1000800000F0A4B48CEF05F0A3A24AEF00F0A4B2F4
:1000900086EF03F0A3A050EF00F0A4B076EF03F0DA
:1000A0000FC000F010C001F011C002F012C003F048
:1000B00013C004F00E8E0DC0E9FF08C0EAFF09C0AE
:1000C000E1FF0AC0E2FF0BC0D9FF0CC0DAFF14C089
:1000D000F3FF15C0F4FF16C0FAFF055007C0E0FF9C
:1000E00006C0D8FF1000F76AF60FF66E000EF72272
:1000F0000900F550120043414E5258300A0D0000DD
:10010000F76A100FF66E010EF7220900F550120083
:1001100043414E5258310A0D0000F76A2A0FF66E1D
:10012000010EF7220900F550120043414E49525882
:100130000A0D0000F76A440FF66E010EF72209005F
:10014000F550120043414E45525220434F4D5354F7
:1001500041543D25580A0D00F2CF0EF0F29EF76A89
:10016000720FF66E010EF7220900F5500EBEF28EE8
:10017000120053544152540A0D00F2CF0EF0F29E79
:10018000F76A940FF66E010EF7220900F5500EBEC5
:10019000F28E1200414C4956452043494F434F4E81
:1001A0003D255820434F4D535441543D255820423E
:1001B00052434F4E323D25580A0D00008B6B8A6B1F
:1001C000896B886B86C08DF085C08CF08753D8B45E
:1001D0008BD08DC003F08CC0E9FF8DC0EAFFEFCF5C
:1001E00000F0016A026A036A03C08BF002C08AF061
:1001F00001C089F000C088F08C51D8B48D078C07FD
:100200008CC0E9FF8DC0EAFFEF50906B8F6B8E6F53
:10021000006A005088138E5189138F518A139051B0
:100220008B138C51D8B48D078C078CC0E9FF8DC01F
:10023000EAFFEF50030B926F936B946B956B006A20
:10024000016A005088130150891392518A13935107
:100250008B138CC0E9FF8DC0EAFFEF50E00B926F6B
:10026000936B946B956B006A9235016E9335026EB9
:100270009435036E013602360336013602360336F4
:10028000013602360336013602360336E00E011619
:10029000005088130150891302508A1303508B13A6
:1002A0008C51D8B48D078C078CC0E9FF8DC0EAFF54
:1002B000EF508F6B8E6F006A016A8E35026E8F353C
:1002C000036E023603360236033602360336023632
:1002D0000336E00E021600508813015089130250B5
:1002E0008A1303508B134FD0020E8C5F000E8D5B70
:1002F0008CC0E9FF8DC0EAFFEF50E00B926F936B6B
:10030000946B956B95318B6F94318A6F9331896FB4
:100310009231886F8B338A33893388338B338A33B6
:10032000893388338B338A33893388338B338A33E9
:1003300089338833070E8B178C51D8B48D078C07FF
:100340008CC0E9FF8DC0EAFFEF50916B906B8F6B13
:100350008E6F8E35006E8F35016E9035026E913541
:10036000036E003601360236033600360136023699
:100370000336F80E001600508813015089130250FE
:100380008A1303508B1388C000F089C001F08AC023
:1003900002F08BC003F0000C1A50FF0801E11A2A8A
:1003A0001A52D8A41CD17A6B700E796F60AE17D038
:1003B000F10E6F146F6E6F99A4906F9174BE6F8180
:1003C000749E60A40BD0000E60B0010E070B006E8F
:1003D000D8900036F10E6F1500106F6F20D00F010E
:1003E00050AF19D0F10E6F140A096F6E00016F89BA
:1003F000A4926F9174BC6F81749C0F015051070BD4
:10040000070B006ED8900036F10E00016F1500103A
:100410006F6F05D00F01000E016E4AD000016550CC
:100420000F0B6E6F6F9B65BC6F8B6F9D62B66F8D90
:10043000000E6FBD010E7E6F0F0E866F640E856F0E
:100440007EC087F0BBDE03C06DF002C06CF001C05F
:100450006BF000C06AF00F0E7D6F660E7C6F7B6BD9
:100460006E517B5D14E27CC0E9FF7DC0EAFFEFCFF7
:1004700080F07AC0EAFF79C0E9FF80C0EFFF792BF6
:10048000D8B47A2B7C2BD8B47D2B7B2BE9D7F10EFB
:100490006F146F6E6F9FA4BE6F8FA49E6FA904D060
:1004A0000F01509F03D00001609E0F01010E016EED
:1004B0001A500E0DF35000017A6B796F1B0E7925DF
:1004C000E96E000E7A21EA6E6DC0EFFF1A500E0D34
:1004D000F3507A6B796F010E7925016E000E7A2147
:1004E000036E01501B0FE96E000E0320EA6E6CC014
:1004F000EFFF1A500E0DF3507A6B796F020E7925CB
:10050000016E000E7A21036E01501B0FE96E000E82
:100510000320EA6E6BC0EFFF1A500E0DF3507A6B9A
:10052000796F030E7925016E000E7A21036E01505A
:100530001B0FE96E000E0320EA6E6AC0EFFF1A502F
:100540000E0DF3507A6B796F040E7925016E000E53
:100550007A21036E01501B0FE96E000E0320EA6E34
:100560006EC0EFFF1A500E0DF3507A6B796F050EC7
:100570007925016E000E7A21036E01501B0FE96E82
:10058000000E0320EA6E6FC0EFFF786B6E51785D4E
:1005900024E21A500E0DF3507A6B796F060E78250F
:1005A000036A7925016E7A51032201501B0F016EF7
:1005B000000E032203C07DF0036A7851700FE96ECC
:1005C000000E0320EA6EEFCF7EF07DC0EAFF01C08F
:1005D000E9FF7EC0EFFF782BD9D71A2A85D07A6B36
:1005E000700E796F60AE17D0F10E6F146F6E6F9949
:1005F000A4906F9174BE6F81749E60A40BD0000EA6
:1006000060B0010E070B006ED8900036F10E6F152A
:1006100000106F6F20D00F0150AF19D0F10E6F1482
:100620000A096F6E00016F89A4926F9174BC6F818B
:10063000749C0F015051070B070B006ED8900036C9
:10064000F10E00016F1500106F6F05D00F01000E45
:10065000016E4AD0000165500F0B6E6F6F9B65BC39
:100660006F8B6F9D62B66F8D000E6FBD010E7E6F3A
:100670000F0E866F640E856F7EC087F09FDD03C00E
:100680006DF002C06CF001C06BF000C06AF00F0E9C
:100690007D6F660E7C6F7B6B6E517B5D14E27CC060
:1006A000E9FF7DC0EAFFEFCF80F07AC0EAFF79C0B2
:1006B000E9FF80C0EFFF792BD8B47A2B7C2BD8B41C
:1006C0007D2B7B2BE9D7F10E6F146F6E6F9FA4BE4D
:1006D0006F8FA49E6FA904D00F01509F03D000011B
:1006E000609E0F01010E016E0001000C6A6B6A51E1
:1006F000FADC6A2B006E00509EA8FED7AD6E080E85
:100700006A5DF5E149DEA49050EF00F06A6B6A5132
:10071000F7DC6A2B006E00509EA8FED7AD6E080E67
:100720006A5DF5E139DEA49250EF00F08BC092F0E3
:100730008AC091F0905352E091C0E9FF92C0EAFF65
:100740008CC0EFFF9151D8B49207910791C0E9FF97
:1007500092C0EAFF8DC0EFFF9151D8B49207910784
:1007600091C0E9FF92C0EAFF8E51030BEF6E91C07A
:10077000E9FF92C0EAFF8EC000F000360036003676
:10078000F80E00160050E00BEF10EF6E91C0E9FF7D
:1007900092C0EAFFEF500809EF6E9151D8B492076A
:1007A000910791C0E9FF92C0EAFF8EC000F0003AC5
:1007B0000032070E00160050070BEF6E91C0E9FFE4
:1007C00092C0EAFF8FC000F0003600360036F80E07
:1007D00000160050F80BEF10EF6E3FD091C0E9FF0C
:1007E00092C0EAFFEF6A9151D8B49207910791C085
:1007F000E9FF92C0EAFFEF6A9151D8B492079107DE
:1008000091C0E9FF92C0EAFF8CC000F0003A0036C8
:10081000E00E00160050E00BEF6E9151D8B4920735
:10082000910791C0E9FF92C0EAFF8CC000F000324E
:10083000003200321F0E001600501F0BEF6E91C0E9
:10084000E9FF92C0EAFF8DC000F0003A0036E00EEA
:1008500000160050E00BEF10EF6E000C0F0E886FCB
:10086000660E876F0F0140B708D0F10E6F140809AC
:100870006F6E0001896B1BD00F0130B709D0F10EEC
:100880006F1406096F6E010E0001896F10D00F0101
:1008900020B709D0F10E6F1404096F6E020E00012B
:1008A000896F05D00F01000E016E3BD0000183510E
:1008B000030B006EFC0E60140010606E0F0E8B6F49
:1008C000640E8A6F7FC08FF07EC08EF07DC08DF089
:1008D0007CC08CF084C090F029DF82C065FF659CED
:1008E00085B1658C866B8251865D14E280C0E9FF1C
:1008F00081C0EAFFEFCF8CF088C0EAFF87C0E9FF34
:100900008CC0EFFF872BD8B4882B802BD8B4812BD9
:10091000862BE9D76086F10E6F146F6E010E016EA3
:100920000F010001000C2A2C01D02A062A50FF08D2
:10093000D8B4F0D02A500D0DF3507B6B7A6F2B0E8C
:100940007A25E96E000E7B21EA6EEFCF7CF02A500B
:100950000D0DF3507E6B7D6F010E7D25016E000E37
:100960007E21036E01502B0FE96E000E0320EA6E0C
:10097000EFCF7FF02A500D0DF350816B806F020E88
:100980008025016E000E8121036E01502B0FE96E50
:10099000000E0320EA6EEFCF82F02A500D0DF350C7
:1009A000846B836F030E8325016E000E8421036E1A
:1009B00001502B0FE96E000E0320EA6EEFCF85F099
:1009C0007CC06DF07FC06CF082C06BF085C06AF0B7
:1009D0002A500D0DF3507B6B7A6F0C0E7A25016E49
:1009E000000E7B21036E01502B0FE96E000E0320D9
:1009F000EA6EEF386E6F0F0E6E172A500D0DF35022
:100A00007B6B7A6F0C0E7A25016E000E7B21036ED4
:100A100001502B0FE96E000E0320EA6EEF500C0B15
:100A2000006E00306F6F6F333F0E6F172A500D0D41
:100A3000F3507B6B7A6F0C0E7A25016E000E7B21D2
:100A4000036E01502B0FE96E000E0320EA6EEFCF0C
:100A50007CF078917CB378812A500D0DF3507B6B3C
:100A60007A6F0C0E7A25016E000E7B21036E015009
:100A70002B0FE96E000E0320EA6EEFCF7CF0789327
:100A80007CB17883796B6E51795D26E2036A795186
:100A9000700F016E000E032201C07AF003C07BF0DC
:100AA0002A500D0DF3507D6B7C6F040E7925036A7F
:100AB0007C25016E7D51032201502B0FE96E000E43
:100AC0000320EA6EEFCF7FF07BC0EAFF7AC0E9FF38
:100AD0007FC0EFFF792BD7D7000E78B1010E7A6F68
:100AE000000E78B3010E7B6F6DC07FF06CC07EF09E
:100AF0006BC07DF06AC07CF0816B700E806F6EC041
:100B000082F06FC083F07AC084F07BC085F0A6DEEF
:100B10002A0601D000D0000C06DFA49450EF00F0AC
:100B200002DFA49650EF00F0FEDEA49850EF00F034
:100B30006A6B6A518DEC00F06A2B006E00509EA823
:100B4000FED7AD6E080E6A5DF4E1A49E50EF00F092
:100B50006CBF10D00F0E006E6B3900160A0E005CD1
:100B600003E2300E002602D06C51002600509EA8F1
:100B7000FED7AD6E0F0E6B170A0E6B5D02E2300EE4
:100B800002D06C9F6C516B276B519EA8FED7AD6E47
:100B9000000C6A6B6A519AEC00F06A2B006E0050F0
:100BA0009EA8FED7AD6E0F0E6A5DF4E174CF6BF0B8
:100BB000370E6C6FCDDF0A0E9EA8FED7AD6E0D0E00
:100BC0009EA8FED7AD6EA49A50EF00F03C38700B93
:100BD000006ED89000361F0E6F1400106F6E6ECF2F
:100BE00000F0003A0030070B3C5CF9E1000CC00E4D
:100BF00070140409706E3F0E7014706EF80E71144C
:100C00000209716EC70E71142809716E719C718E84
:100C1000F80E72140509726E729C13EF06F0040E42
:100C20003C6ED4DFE4D7606A9F0E6014606E60840F
:100C300060CF50FF739A7398186AF2BE188EF29EB6
:100C40000F0E8B6F1B0E8A6F8F6B8E6B8D6B8C6B89
:100C5000906B6CDD18BEF28E186AF2BE188EF29E92
:100C60000F0E8B6F030E8A6F8F6B8E6B8D6B8C6B81
:100C7000906B5CDD18BEF28E186AF2BE188EF29E82
:100C80000F0E8B6F070E8A6F8F6B8E6B8D6B8C6B5D
:100C9000906B4CDD18BEF28E186AF2BE188EF29E72
:100CA0000F0E8B6F1F0E8A6F8F6B8E6B8D6B8C6B25
:100CB000906B3CDD18BEF28E186AF2BE188EF29E62
:100CC0000F0E8B6F0B0E8A6F8F6B8E6B8D6B8C6B19
:100CD000906B2CDD18BEF28E186AF2BE188EF29E52
:100CE0000F0E8B6F8A6F8F6B8E6B8D6B8C6B906B17
:100CF0001DDD18BEF28E186AF2BE188EF29E0F0E1F
:100D00008B6F130E8A6F8F6B8E6B8D6B8C6B906BF2
:100D10000DDD18BEF28E186AF2BE188EF29E0F0E0E
:100D20008B6F170E8A6F8F6B8E6B8D6B8C6B906BCE
:100D3000FDDC18BEF28E9350FB0B0809936E3C6AE3
:100D400045DF69EF07F02A50FF0801E12A2A2A52FD
:100D5000D8A491D02A500D0DF350486A476E2B0E3F
:100D60004724E96E000E4820EA6E3FC0EFFF2A508C
:100D70000D0DF350486A476E010E4724016E000EB8
:100D80004820036E01502B0FE96E000E0320EA6E1F
:100D90003EC0EFFF2A500D0DF350486A476E020E19
:100DA0004724016E000E4820036E01502B0FE96EA0
:100DB000000E0320EA6E3DC0EFFF2A500D0DF350E8
:100DC000486A476E030E4724016E000E4820036EEA
:100DD00001502B0FE96E000E0320EA6E3CC0EFFFBE
:100DE000466A4250465C24E22A500D0DF350486A90
:100DF000476E040E4624036A4724016E48500322BE
:100E000001502B0F016E000E032203C04BF0036A4A
:100E100046504024E96E41500320EA6EEFCF4CF07B
:100E20004BC0EAFF01C0E9FF4CC0EFFF462AD9D70B
:100E30002A500D0DF350486A476E0C0E4724016E80
:100E4000000E4820036E01502B0FE96E000E0320A8
:100E5000EA6E42384B6EF00E4B164334006E00368D
:100E6000FC0E001600504B104C6ED89044344C10C1
:100E70004510EF6E2A2A51EF08F0EA6A3D0EE96E3E
:100E8000EF500DE0060E016E006A002EFED7012E17
:100E9000FBD77B0E006E002EFED7EF2EF3D7B0EF00
:100EA00008F0F86AD09E0D8EEA6AE96AB886080EE4
:100EB000AF6E020EB06EA60EAC6E900EAB6EC15051
:100EC000C00B0F09C16E1A6A2990FF0E2A6E298283
:100ED000A6D6040E3C6E7ADEC00E7014706E3F0E05
:100EE0007014706EF80E71140109716EC70E7114D2
:100EF0001009716E719C718EF80E72140209726E77
:100F0000729C3C6A63DE040E3C6E60DE186AF2BEC0
:100F1000188EF29E0F0E8B6F1B0E8A6F8F6B8E6B6F
:100F20008D6B8C6B906B02DC18BEF28E186AF2BE71
:100F3000188EF29E0F0E8B6F030E8A6F8F6B8E6B67
:100F40008D6B8C6B906B96EC03F018BEF28E186A6A
:100F5000F2BE188EF29E0F0E8B6F070E8A6F8F6B8C
:100F60008E6B8D6B8C6B906B96EC03F018BEF28ED3
:100F7000186AF2BE188EF29E0F0E8B6F1F0E8A6FCC
:100F80008F6B8E6B8D6B8C6B906B96EC03F018BE39
:100F9000F28E186AF2BE188EF29E0F0E8B6F0B0E39
:100FA0008A6F8F6B8E6B8D6B8C6B906B96EC03F0F6
:100FB00018BEF28E186AF2BE188EF29E0F0E8B6F5C
:100FC0008A6F8F6B8E6B8D6B8C6B906B96EC03F0D6
:100FD00018BEF28E186AF2BE188EF29E0F0E8B6F3C
:100FE000130E8A6F8F6B8E6B8D6B8C6B906B96EC88
:100FF00003F018BEF28E186AF2BE188EF29E0F0E23
:101000008B6F170E8A6F8F6B8E6B8D6B8C6B906BEB
:1010100096EC03F018BEF28E3C6AD8DDA380A38262
:10102000A384A386A388C00EF212C150C00B0F097F
:10103000C16EC290C69A949A94889496010EC66E18
:10104000000EC76ED190800ED56ECD6A000ECA6EAE
:10105000000ECB6EB56A3C6A3C50ACEC00F03C2A0A
:10106000006E00509EA8FED7AD6E070E3C5CF4E10A
:10107000196A0D0E386E0E0E396E010E3A6E3B6A0D
:10108000192A19C03BF03F6A3E6A3D6A3C6A416AD0
:10109000380E406E040E426E030E436E446A456A7B
:1010A00052D63C6A3C50BDEC00F03C2A006E005029
:1010B0009EA8FED7AD6E0D0E3C5CF4E1186AF2BE40
:1010C000188EF29E73CF6BF0370E6C6F41DD18BE39
:1010D000F28E0F0E3D6E3D50BDEC00F03D2A006ECD
:1010E00000509EA8FED7AD6E180E3D5CF4E1186A64
:1010F000F2BE188EF29E74CF6BF0370E6C6F28DD47
:1011000018BEF28E1A0E3E6E3E50BDEC00F03E2A26
:10111000006E00509EA8FED7AD6E220E3E5CF4E13C
:10112000186AF2BE188EF29E71CF6BF0370E6C6F9C
:101130000FDD18BEF28E0A0E9EA8FED7AD6E0D0E04
:101140009EA8FED7AD6E186AF2BE188EF29E93EC82
:1011500004F018BEF28E020E3C6EFA0E3D6E8DD675
:081160003C2EFBD786D70300EB
:020000040030CA
:0E00000000C21F0E000695000FC00FE00F405B
:00000001FF
;PIC18F2480
