:020000040000FA
:100000005EEF01F0F76A140FF66E000EF72209009A
:10001000F5501200696E6963696F2E2E2E0D0A006D
:10002000F76A300FF66E000EF7220900F550120045
:100030006573637269746F3A2575200D0A00006A52
:10004000016A1450D89015B000260032013215B262
:1000500000260032013215B400260032013215B6F6
:1000600000260032013215B800260032013215BADE
:1000700000260032013215BC00260032013215BEC6
:10008000002600320132B1EF00F0126A106A0A0E47
:10009000116E0F6A0D500E1003E1000E016EC1D0FB
:1000A0001250122A036A0D24E96E0E500320EA6EE4
:1000B000EFCF13F013502D080DE1010E106E12500A
:1000C000122A036A0D24E96E0E500320EA6EEFCF68
:1000D00013F00DD013502B080AE11250122A036AB4
:1000E0000D24E96E0E500320EA6EEFCF13F013508B
:1000F0002F08D8B08ED013503908D8A08AD013500A
:10010000300821E1036A12500D24E96E0E500320DD
:10011000EA6EEF5078080AE0036A12500D24E96E87
:100120000E500320EA6EEF5058080DE1100E116ECC
:10013000122A1250122A036A0D24E96E0E5003206F
:10014000EA6EEFCF13F011500A081BE113502F088D
:1001500017E21350390814E30A0E146E0FC015F09D
:100160006ED7300E135C01240F6E1250122A036AF0
:100170000D24E96E0E500320EA6EEFCF13F0E6D7A0
:1001800048D01150100845E11350600806E21350A2
:100190007A0803E31350DF0B01D01350136E135092
:1001A0002F0803E21350390806E21350400831E2E9
:1001B000135046082EE313502F080CE21350390851
:1001C00009E30F38146EF00E1416300E135C14246D
:1001D0000F6E09D00F38146EF00E1416410E135C1A
:1001E0000A0F14240F6E1250122A036A0D24E96EAE
:1001F0000E500320EA6EEFCF13F01350600806E2B2
:1002000013507A0803E31350DF0B01D01350136E21
:10021000C6D7102C04D011500A0801E10F6C0FC092
:1002200001F09BEF01F01150016A105C03E210C075
:1002300000F00CD0006A080E126E10360036115015
:10024000005CD8B0006E0136122EF7D7000C0150BA
:100250000EC010F0640E116EE6DF00C00EF001500B
:10026000300E07E10FA20DD00FB60BD00FB8200E45
:1002700003D00F960F980F80012601509EA8FED73D
:10028000AD6E0EC010F00A0E116ECDDF00C00EF084
:100290000150300E06E10FB609D00FA007D00FB8FD
:1002A000200E012601509EA8FED7AD6E300E0E2600
:1002B0000E509EA8FED7AD6EB7EF01F0F86AD09E43
:1002C000EA6AE96AB886080EAF6E020EB06EA60E34
:1002D000AC6E900EAB6EC150C00B0F09C16E056ABB
:1002E000066AC150C00B0F09C16EC290C69A949A9B
:1002F00094889496200EC66E400EC76ED190800EE4
:10030000D56ECD6A000ECA6E000ECB6EB56A0D6A50
:100310000D5078DE0D2A006E00509EA8FED7AD6EFF
:100320000B0E0D5CF5E19EAAFED7AECF0CF00E6A67
:100330000C0E0D6EAAD601C00BF094948B94C9508C
:100340000BC0C9FFC7A0FED794948B840D6A0D50D3
:1003500067DE0D2A006E00509EA8FED7AD6E080E17
:100360000D5CF5E10BC00EF01B0E0F6E70D7200E6A
:100370009EA8FED7AD6E0D0E9EA8FED7AD6E0A0EDE
:0A0380009EA8FED7AD6ECFD7030094
:020000040030CA
:0E00000000C21F0E008695000FC00FE00F40DB
:00000001FF
;PIC18F2580
