:020000040000FA
:06002A007F6B806B80512A
:10003000010829E37EC003F07DC0E9FF7EC0EAFF2E
:10004000EF5040080EE27F51100DF3CF81F07DC0DC
:10005000E9FF7EC0EAFFEF508125BF0F0A0F7F6FD7
:100060000CD07F51100DF3CF81F07DC0E9FF7EC031
:10007000EAFFEF508125D00F7F6F8051802B7D2BC1
:10008000D8B47E2BD4D77FC001F0000CF250036EA1
:10009000F29EA68EA6840F01550EA76EAA0EA76E1D
:1000A000A68200000350F2120001000CD08CA69C26
:1000B000F6501F0B006EE00EF6160A0078C001F035
:1000C000F650006607D0010F3F0B04E1A688090037
:1000D000DDDF0A00006607D0EECFF5FF015204E035
:1000E0000F00010603D000060B000C001F0EF614D3
:1000F0001F0AE6E1CBDF0166E3D7F86A000C4692FF
:100100004B6A4C6A46B210D1056A036A0550060F65
:10011000E96E000E0320EA6E9EAAFED7AECFEFFF77
:100120000550052A036A060FE96E000E0320EA6EE9
:10013000EF500D0803E005504008E7E2130E9EA8BB
:10014000FED7AD6E468006503A08D8A4E2D07E6B4A
:10015000070E7D6F6ADF01C057F07E6B090E7D6F61
:1001600064DF01C078F07E6B0B0E7D6F5EDF78C0C0
:100170004AF001C049F07E6B0D0E7D6F56DF01C065
:1001800048F04BC04FF04CC050F049C04DF04AC051
:100190004EF0482C02D04682BCD0505207E14F525C
:1001A00005E14E5203E14D501F0808E2505206E1AE
:1001B0004F5204E14E500408D8B0ABD05052D8A4EE
:1001C000A8D04F502F08D8A0A4D0476A010E566E71
:1001D000030E055C565C10E2036A5650060F786FFA
:1001E000000E0320796F7E6F78C07DF01EDF015016
:1001F0004726020E5626ECD7FF0ED8804754010F33
:10020000476E030E055C036A060F796F000E03202C
:100210007A6F7E6F79C07DF008DF0150475C02E0A5
:10022000469077D0485264E1090E566E556A030E27
:10023000055C565C1FE25550552A036A580F016E43
:10024000000E032201C079F003C07AF0036A565011
:10025000060F7B6F000E03207C6F7E6F7BC07DF0EE
:10026000E4DE7AC0EAFF79C0E9FF01C0EFFF020EC9
:100270005626DDD751504D5C09E152504E5C06E1E7
:1002800053504F5C03E15450505C19E04D50010B4A
:10029000006E016A026A036A005206E1015204E13B
:1002A000025202E103520BE0D08C4FC0F8FF4EC067
:1002B000F7FF4DC0F6FFA688A69CE8DEF86A010E9F
:1002C0004D24516E000E4E20526E000E4F20536E84
:1002D000000E5020546E4FC0F8FF4EC0F7FF4DC0C7
:1002E000F6FFEA6A580EE96E57C078F0DFDE11D0EB
:1002F000485004080EE17E6B0F0E7D6F96DE01C044
:1003000078F07E6B110E7D6F90DE78C04CF001C0EE
:100310004BF046A004D0060E9EA8FED7AD6E110E7F
:100320009EA8FED7AD6EEED6060E9EA8FED7AD6E89
:10033000110E9EA8FED7AD6EFF00000CFFD7000C7B
:10034000F86AD09EEA6AE96AB886080EAF6E020EB5
:10035000B06EA60EAC6E900EAB6EC150C00B0F0906
:10036000C16E938A81BA01D0CADEE8DFC150C00BEA
:100370000F09C16EC290C69A949A94889496010E01
:10038000C66E000EC76ED190800ED56ECD6A000E7F
:0A039000CA6E000ECB6EB56A0300C2
:04050000A0EF01F077
:020000040030CA
:0E00000000C21F0E008695000FC00FE00F40DB
:00000001FF
;PIC18F2580
