:020000040000FA
:1000000032EF00F0F76A140FF66E000EF7220900C7
:10001000F55012006F6C6161616161612E2E2E2EB0
:100020002E00F76A320FF66E000EF7220900F55027
:10003000120061646575732E2E2E2E2E0000EA6A62
:10004000060EE96EEF500DE0060E016E006A002EFE
:10005000FED7012EFBD77B0E006E002EFED7EF2EB3
:10006000F3D7000CF86AD09EEA6AE96AB886080EEF
:10007000AF6E020EB06EA60EAC6E900EAB6EC1509F
:10008000C00B0F09C16EC150C00B0F09C16EC290E9
:10009000C69A949A94889496010EC66E000EC76E06
:1000A000D190800ED56ECD6A000ECA6E000ECB6E5A
:1000B000B56A066A0650A6DF062A006E00509EA8A2
:1000C000FED7AD6E0D0E065CF5E1066A0650A9DF9F
:1000D000062A006E00509EA8FED7AD6E0A0E065C82
:1000E000F5E194908B80640E066EA9DF94908B905E
:0A00F000640E066EA4DFE9D70300DA
:020000040030CA
:0E00000000C21F0E008691000FC00FE00F40DF
:00000001FF
;PIC18F2580
